{
  "_format": "hh3-artifact-1",
  "contractName": "ProfileRegistry",
  "sourceName": "contracts/profileRegistry.sol",
  "abi": [
    {
      "inputs": [
        {
          "internalType": "address",
          "name": "",
          "type": "address"
        }
      ],
      "name": "profiles",
      "outputs": [
        {
          "internalType": "string",
          "name": "ipnsName",
          "type": "string"
        },
        {
          "internalType": "uint256",
          "name": "lastUpdated",
          "type": "uint256"
        }
      ],
      "stateMutability": "view",
      "type": "function"
    },
    {
      "inputs": [
        {
          "internalType": "string",
          "name": "ipnsName",
          "type": "string"
        },
        {
          "internalType": "uint256",
          "name": "timestamp",
          "type": "uint256"
        }
      ],
      "name": "updateProfile",
      "outputs": [],
      "stateMutability": "nonpayable",
      "type": "function"
    }
  ],
  "bytecode": "0x6080604052348015600e575f5ffd5b5061043f8061001c5f395ff3fe608060405234801561000f575f5ffd5b5060043610610034575f3560e01c80630d3ffb4014610038578063bbe156271461004d575b5f5ffd5b61004b6100463660046101db565b610077565b005b61006061005b36600461024d565b61013a565b60405161006e92919061027a565b60405180910390f35b335f9081526020819052604090206001015481116100ca5760405162461bcd60e51b815260206004820152600c60248201526b5374616c652075706461746560a01b604482015260640160405180910390fd5b6040805160606020601f860181900402820181018352918101848152909182919086908690819085018382808284375f9201829052509385525050506020918201849052338152908190526040902081518190610127908261034e565b5060208201518160010155905050505050565b5f60208190529081526040902080548190610154906102ca565b80601f0160208091040260200160405190810160405280929190818152602001828054610180906102ca565b80156101cb5780601f106101a2576101008083540402835291602001916101cb565b820191905f5260205f20905b8154815290600101906020018083116101ae57829003601f168201915b5050505050908060010154905082565b5f5f5f604084860312156101ed575f5ffd5b833567ffffffffffffffff811115610203575f5ffd5b8401601f81018613610213575f5ffd5b803567ffffffffffffffff811115610229575f5ffd5b86602082840101111561023a575f5ffd5b6020918201979096509401359392505050565b5f6020828403121561025d575f5ffd5b81356001600160a01b0381168114610273575f5ffd5b9392505050565b604081525f83518060408401528060208601606085015e5f606082850101526060601f19601f8301168401019150508260208301529392505050565b634e487b7160e01b5f52604160045260245ffd5b600181811c908216806102de57607f821691505b6020821081036102fc57634e487b7160e01b5f52602260045260245ffd5b50919050565b601f82111561034957805f5260205f20601f840160051c810160208510156103275750805b601f840160051c820191505b81811015610346575f8155600101610333565b50505b505050565b815167ffffffffffffffff811115610368576103686102b6565b61037c8161037684546102ca565b84610302565b6020601f8211600181146103ae575f83156103975750848201515b5f19600385901b1c1916600184901b178455610346565b5f84815260208120601f198516915b828110156103dd57878501518255602094850194600190920191016103bd565b50848210156103fa57868401515f19600387901b60f8161c191681555b50505050600190811b0190555056fea264697066735822122023c4dd7e8f8854a2cc93d9fba3422fcf6f7d3d698979179207114564d283dacd64736f6c634300081c0033",
  "linkReferences": {},
  "deployedLinkReferences": {},
  "immutableReferences": {},
  "inputSourceName": "project/contracts/profileRegistry.sol",
  "buildInfoId": "solc-0_8_28-59dde6dbe5d5e264aa1ef01196436c299292e10a"
}